:020000040800F2
:1000000080060020CD010008D90900086F0500080E
:10001000D5090008B5020008D90E0008000000004C
:10002000000000000000000000000000E50A0008D9
:10003000B902000800000000DB090008D10B00082D
:10004000E7010008E7010008E7010008E7010008F0
:10005000E7010008E7010008E7010008E7010008E0
:10006000E7010008E7010008E7010008E7010008D0
:10007000E7010008E7010008E7010008E7010008C0
:10008000E7010008E7010008E7010008E7010008B0
:10009000E7010008E7010008E7010008E7010008A0
:1000A000E7010008E7010008E7010008E701000890
:1000B000E7010008E7010008E7010008E701000880
:1000C000E7010008E7010008E7010008E701000870
:1000D000E7010008E7010008E7010008E701000860
:1000E000E7010008E7010008E7010008E701000850
:1000F000E7010008E7010008E7010008E701000840
:10010000E7010008E7010008E7010008E70100082F
:10011000E7010008E7010008E7010008E70100081F
:10012000E7010008E7010008E7010008E70100080F
:1001300000F002F800F03AF80AA090E8000C8244BF
:100140008344AAF10107DA4501D100F02FF8AFF29C
:10015000090EBAE80F0013F0010F18BFFB1A43F0A5
:10016000010318473826000058260000103A24BF23
:1001700078C878C1FAD8520724BF30C830C144BF0C
:1001800004680C607047000000230024002500264E
:10019000103A28BF78C1FBD8520728BF30C148BFEA
:1001A0000B6070471FB51FBD10B510BD00F031F8D2
:1001B0001146FFF7F7FF00F09BFE00F04FF803B485
:1001C000FFF7F2FF03BC00F053F800000948804736
:1001D00009480047FEE7FEE7FEE7FEE7FEE7FEE729
:1001E000FEE7FEE7FEE7FEE704480549054A064B41
:1001F000704700000D0C000831010008800000204D
:100200008006002080020020800200207047704796
:100210007047754600F028F8AE460500694653461B
:1002200020F00700854618B020B5FFF7DDFFBDE8D8
:1002300020404FF000064FF000074FF000084FF04D
:10024000000B21F00701AC46ACE8C009ACE8C009DE
:10025000ACE8C009ACE8C0098D4670470446AFF36E
:1002600000802046FFF7ABFF0048704720000020C9
:1002700001491820ABBEFEE72600020070470000CF
:1002800008B50121202000F0C9FB4020ADF8000096
:1002900010208DF8030003208DF802006946044801
:1002A00000F0CDF84021024800F05DF908BD0000E3
:1002B0000014014000BFFEE7704700BF0100A0F13D
:1002C0000100FBD1704700B597B0022001900020DB
:1002D00002900520039000200490059006904FF0B6
:1002E0008050079000200890099008200A90102064
:1002F0000B9000200C900E900F9010904FF48050B7
:100300001190002012901390149001A8159016904F
:1003100008A800F021F80121002000F003F817B030
:1003200000BD000051B18200A2F1C042126842F04B
:1003300001038200A2F1C042136009E08200A2F131
:10034000C0421268034B1A408300A3F1C0431A60F5
:1003500070470000FEFF0F00D0E901121143C26890
:100360001143026911434269114382691143C26911
:100370001143026A1143426A1143826A1143C26AFD
:100380001143026B114302689200A2F1C042116056
:10039000816808290BD101688900A1F1C041096871
:1003A00041F0400201688900A1F1C0410A60416B3F
:1003B0000968426B526841EA0211426B926841EA55
:1003C0000221426B928941EA0241426B128A41EA60
:1003D0000251426B127D41EA0261426B9269114304
:1003E0000268521C9200A2F1C0421160C16AB1F5CC
:1003F000804F1BD1816B0968826B526841EA021100
:10040000826B926841EA0221826B128A41EA0251B0
:10041000826B127D41EA0261826B9269114302682C
:100420009200A2F1C042C2F8041107E06FF07042DE
:1004300001688900A1F1C041C1F8042170472DE98C
:10044000F04102460025002600200023002400275A
:1004500091F803C00CF00F0591F803C00CF0100CDC
:10046000BCF1000F03D091F802C04CEA050591F8E9
:1004700000C0BCF1000F31D0146800202BE04FF019
:10048000010C0CFA00F3B1F800C00CEA03069E421E
:1004900020D183004FF00F0C0CFA03F7BC4305FA90
:1004A00003FC4CEA040491F803C0BCF1280F06D108
:1004B0004FF0010C0CFA00FCC2F814C00AE091F8ED
:1004C00003C0BCF1480F05D14FF0010C0CFA00FC41
:1004D000C2F810C0401C0828D1D31460B1F800C085
:1004E000BCF1FF0F34DD546800202EE000F1080C51
:1004F0004FF0010808FA0CF3B1F800C00CEA03064B
:100500009E4221D183004FF00F0C0CFA03F7BC433D
:1005100005FA03FC4CEA040491F803C0BCF1280F6F
:1005200005D100F1080C08FA0CF8C2F8148091F813
:1005300003C0BCF1480F07D100F1080C4FF00108CF
:1005400008FA0CF8C2F81080401C0828CED354607A
:10055000BDE8F0810246002093680B400BB10120FA
:1005600000E000207047416170470161704700BFA3
:10057000FEE7000010B500F079FBC82000F0AEFCEB
:10058000CF204FF0C0410880002073490880C1206F
:10059000088030200880ED204FF0C04108806420A2
:1005A0006D4908800320088012200880812008807F
:1005B000E8204FF0C041088085206749088010205E
:1005C00008807A200880CB204107088039206249C2
:1005D00008802C2008800020088034200880022019
:1005E0000880F7204FF0C041088020205A49088039
:1005F000EA204FF0C0410880002057490880088059
:10060000C020C10508801B2053490880C1204FF03D
:10061000C0410880012050490880C5204FF0C041EA
:10062000088030204C4908800880C7204FF0C04126
:100630000880B72048490880362001070880082034
:10064000454908803A204FF0C04108805520424972
:100650000880B1204FF0C041088000203E4908804A
:100660001A200880B620010708800A203A4908802D
:10067000A2200880F2204FF0C041088000203649B7
:100680000880262001070880012033490880E020E7
:100690004FF0C04108800F202F4908802A20088091
:1006A00028200880082008800E2008800820088064
:1006B00054200880A9200880432008800A20088050
:1006C0000F20088000200880088008800880E12032
:1006D0004FF0C041088000201F4908801520088085
:1006E0001720088007200880112008800620088035
:1006F0002B200880562008803C2008800520088098
:10070000102008800F2008803F20088008800F20DC
:1007100008802B204107088000200F4908800880AE
:10072000012008803F2008802A204FF0C041088027
:1007300000200949088008800880EF2008801120E7
:100740004FF0C0410880782000F0C8FB29204FF00E
:10075000C041088010BD00000000026008B5012102
:10076000302000F05BF948208DF803004FF4005072
:10077000ADF8000069460548FFF761FE0820ADF8B6
:10078000000069460248FFF75AFE08BD001001400C
:100790000014014070B5044640F23F13EF220021DF
:1007A000084600F0D1F82C20C1060880002507E09B
:1007B000002602E004480480761CF02EFAD36D1C5B
:1007C000B5F5A07FF4D370BD000002602DE9F043C1
:1007D00006460F46144607F10F0083B2F01D82B2A1
:1007E0003946304600F0B0F82C20C1060880A4F14C
:1007F000200084B2002520E0124800EB041010F81D
:1008000005804FF0000913E008F0800020B10E4889
:1008100000880E49088003E00D4800880B490880D5
:100820004FEA48604FEA106809F1010000F0FF0943
:10083000B9F1080FE8DB681CC5B2102DDCDBBDE8A0
:10084000F0830000AC2100081800002000000260C6
:100850001A0000202DE9F04705460E46174606F11E
:100860003F0083B205F13F0082B23146284600F0D6
:100870006BF82C20C1060880002420E0124800EB11
:10088000472010F804804FF0000913E008F08000C2
:1008900020B10E4800880E49088003E00D4800880A
:1008A0000B4908804FEA48604FEA106809F10100DF
:1008B0001FFA80F9B9F1080FE8DB601C84B2B4F5C7
:1008C000007FDBDBBDE8F087AC17000818000020D4
:1008D000000002601A0000202DE9F0470646894614
:1008E00090461D464FF0000A002428E0281B401EB9
:1008F000C1B20A2000F0C0FBB8FBF0F00A21B0FB47
:10090000F1F201FB1207BAF1000F0DD1681EA042EF
:100910000ADD3FB9082101FB046020224946FFF7A8
:1009200055FF0AE04FF0010A082101FB046007F1BE
:1009300030024946FFF74AFF00BF601CC4B2AC4218
:10094000D4DBBDE8F087000030B52A244FF0C04565
:100950002C8004120A4D2C80C4B22C8014122C80DE
:10096000D4B22C802B2465072C800C12044D2C80D3
:10097000CCB22C801C122C80DCB22C8030BD00004C
:100980000000026008B50121282000F047F820206F
:10099000ADF8000010208DF8030003208DF8020050
:1009A00069460A48FFF74BFD4FF48050ADF8000050
:1009B00069460748FFF743FD20210448FFF7D5FDAE
:1009C0004FF480510248FFF7D0FD08BD000C0140F4
:1009D0000014014000BFFEE77047704729B1064A86
:1009E00052690243044B5A6104E0034A526982434C
:1009F000014B5A61704700000010024029B1064ABD
:100A0000D2690243044BDA6104E0034AD2698243AB
:100A1000014BDA61704700000010024029B1064A1C
:100A200092690243044B9A6104E0034A926982434B
:100A3000014B9A61704700000010024010B5044657
:100A400000BF02210A4800F021F80028F9D0214611
:100A5000074800F027F800BF0121054800F016F80C
:100A60000028F9D0024800F01AF8C0B210BD00000A
:100A70000038004021B1028842F04002028004E0C8
:100A800002884FF6BF731A4002807047024600206A
:100A900013890B400BB1012000E000207047014694
:100AA000888970478181704710B50022028802F45E
:100AB00041520B884C8823438C882343CC882343A2
:100AC0000C8923434C8923438C892343CC892343BA
:100AD0001A430280838B4FF2FF74234083830B8A77
:100AE000038210BD704710B500F002F810BD000081
:100AF0000CB50020019000903348006840F480302D
:100B00003149086000BF3048006800F400300090B0
:100B10000198401C0190009818B90198B0F5A06F99
:100B2000F1D12948006800F4003010B10120009094
:100B300001E0002000900098012843D1234800687C
:100B400040F01000214908600846006820F00300CA
:100B500008600846006840F0020008601A484068D3
:100B6000194948600846406848600846406840F4B3
:100B7000806048600846406820F47C104860084661
:100B8000406840F4E81048600846006840F0807013
:100B9000086000BF0C48006800F000700028F9D021
:100BA0000948406820F0030007494860084640684B
:100BB00040F00200486000BF0348406800F00C00AD
:100BC0000828F9D10CBD00000010024000200240AE
:100BD0000B48006880F02000094908600948006857
:100BE00080F480500749086007480068401C0649A7
:100BF0000860084600680A2801D100200860704794
:100C00000C0C01400C1401401400002010B51348D6
:100C1000006840F00100114908600846406810492A
:100C200008400E494860084600680E4908400B49D4
:100C300008600846006820F4802008600846406884
:100C400020F4FE0048604FF41F008860FFF74BFF60
:100C50004FF000600449086010BD00000010024021
:100C60000000FFF8FFFFF6FE08ED00E008B50121E7
:100C70000802FFF7B3FE01216020FFF7CFFE03203B
:100C80008DF8020018208DF803004CF6B370ADF813
:100C9000000069460648FFF7D2FB4FF68070ADF8BA
:100CA000000069460348FFF7CAFBFFF70CFB08BDCD
:100CB00000140140001801402DE9F04105464FF4B1
:100CC00080500C4908602846FFF7B8FE0020FFF767
:100CD000B5FE06460020FFF7B1FE074607EB0620EB
:100CE00084B2E4104FF480500249091F0860204686
:100CF000BDE8F081140C0140FEB50746002406E073
:100D00003846FFF7D9FF2DF81400601C84B2052C7B
:100D1000F6DB002416E0601C85B20FE03DF81400FD
:100D20003DF81510884207DD3DF814603DF81500C8
:100D30002DF814002DF81560681C85B2052DEDDB2B
:100D4000601C84B2052CE6DBBDF80800BDF800107D
:100D5000401A322801DD0120FEBDBDF80400FBE78A
:100D60002DE9F05FD020FFF7C7FF04469020FFF782
:100D7000C3FF8146782C02DBB9F1C80F02DA0120EB
:100D8000BDE8F09FA4F1780000F0AFFB0546114AE2
:100D9000114B00F025FA82460022104B00F010FCA7
:100DA000074600F075FB0E490880A9F1C80000F065
:100DB0009CFB074600220B4B00F012FA054600226E
:100DC000094B00F0FDFB824600F062FB07490880FA
:100DD0000020D5E7986E1283C02A304000006E4094
:100DE0001C00002000C02740000074401E000020AE
:100DF00000B587B001210820FFF710FE012188030C
:100E0000FFF7FCFD4FF40050ADF8040003208DF80F
:100E1000060018208DF8070001A92C48FFF70FFBEA
:100E20004FF48040ADF8040001A92848FFF707FB04
:100E30004FF40040ADF8040001A92448FFF7FFFA81
:100E40004FF48050ADF8040010208DF8070001A980
:100E50001E48FFF7F4FA4FF480511C48FFF785FB5A
:100E60000020ADF808004FF48270ADF80A000020B1
:100E7000ADF80C000220ADF80E000120ADF8100016
:100E80004002ADF812000820ADF814000020ADF8C3
:100E900016000720ADF8180002A90D48FFF704FE60
:100EA00001210B48FFF7E6FD01212020FFF7B6FDE9
:100EB00048208DF807004FF40050ADF8040001A958
:100EC0000448FFF7BCFA07B000BD0000000C014069
:100ED000003800400014014000BFFEE741F28831B5
:100EE000484300BF0100A0F10100FBD170470000A2
:100EF000FFF740FB4FF47840FFF74CFC4FF478408D
:100F000054490880002211465820FFF7A3FC012213
:100F100040215820FFF79EFC022280215820FFF735
:100F200099FC0322C0215820FFF794FC0422910170
:100F30005820FFF78FFCFFF725FD20214648FFF7DB
:100F400012FB4FF480514548FFF70FFB44480068FF
:100F50000A22B0FBF2F1B1F1807F00D31DE021F055
:100F60007F40401E4FF0E022506150170F220028B2
:100F700007DA13071D0E3B4B00F00F04241F1D550D
:100F800003E013071C0E384B1C5400BF00204FF029
:100F9000E02290610720106100BFFFF7DFFBFFF741
:100FA0006FF9FFF725FF53E04FF400512F48FFF78B
:100FB000D1FAC8B947F23050FFF77FF94FF400512A
:100FC0002A48FFF7C7FA78B940212448FFF7CDFA3D
:100FD00000BF4FF400512548FFF7BCFA0028F8D0B5
:100FE00040211E48FFF7BFFA08211C48FFF7B2FA5C
:100FF000B8B947F23050FFF760F908211748FFF7FA
:10100000A9FA70B940211548FFF7AFFA00BF0821CF
:101010001248FFF79FFA0028F9D040210F48FFF748
:10102000A2FA4FF400510D48FFF794FA80B9FFF788
:1010300097FE68B906230E48028800211420FFF7A6
:101040004BFC06230B48028814210846FFF744FC9A
:10105000AAE700001A000020000C01400014014023
:101060000000002018ED00E000E400E00010014066
:101070001C0000201E00002010B50246012000E0E8
:1010800050430B00A1F10104E1B2F9D110BD000001
:1010900010B591EA030F48BF83F0004300F1A4822A
:1010A000841A71EB030C05D2121943EB0C03001BDD
:1010B00061EB0C01DFF824E14FEA1154A4EB135C5F
:1010C0001EEA430F18BF9EEA445F73D023EA0E0363
:1010D000DCF1200E21EA045143F4801332D322FACA
:1010E0000CFE10EB0E0023FA0CFE41EB0E01CCF1CE
:1010F000200E03FA0EFE10EB0E0051F10001B1F5C7
:10110000801FCCF1200E32D201EB045112FA0EF204
:10111000BDE8104058BF7047401C38BF5FEA42022C
:1011200018BF7047002814BF20F0010041F10001F2
:101130004FEA410313F5001F38BF7047A1F1C041CA
:1011400000F038BA012A43EB0302ACF1200CDCF1C9
:101150001F0E32BF4FF0000E23FA0CF310EB03000A
:1011600041EB0451B4EB115FD0D0A1EB045101F578
:10117000801149085FEA300001EB04510ED350F1B1
:10118000000038BF12FA0EFE08D1BDE81040C9E7D2
:10119000401C38BF5FEA4202CAD1C3E7BDE8104035
:1011A0004FEA410313F5001F38BF7047A1F1C0415A
:1011B00000F000BA9EEA445F08D011EA5E0FBDE875
:1011C000104004BF01F0004100207047BDE810400E
:1011D00070B500F0A1F900BF64FBBE3E0000E0FF67
:1011E0002DE9C04130B4DFF8A0C23CEA111418BFA9
:1011F0003CEA131400F0EC8081EA03051CEA1114A8
:1012000044EAD57418BF1CEA131500F0C780A4EB9C
:1012100005044FF0004545EAC12145EAC32341EAF0
:10122000505143EA525304F17F74994204F500345B
:101230004FEAC0204FEAC22208BF904200F09C80D3
:101240004FEA13650FF24016765D4FEA134506FB31
:1012500005F7C7F1807706FB07F74FEAD737A7FBFB
:1012600003687642C8F58038A7FB06CE38BFA8F1E0
:10127000010807FB08E64FF0000EA6FB028CE6FB18
:1012800003CEDCF1000CCEF1004E38BFAEF1010E02
:10129000A6FB0C584FF000074FF00005E6FB0E8749
:1012A000A1FB08C6A0FB07CE16EB0E0645F1000514
:1012B000E1FB076515F1E04E7EBFA4F580345FEADF
:1012C00046066D4116F1800745F100054FEA1727E4
:1012D0004FEA066647EA0567A6F1DE46B6F1805F8B
:1012E0004FEA15251FD9384624F0010C05EBC471CF
:1012F000BCF1FE6F01EB0C1102D8F0BCBDE800811F
:1013000024425CBF01F5801E9EEAC47F02D4F0BC7B
:10131000BDE80081244238D4F0BCA1F1C041BDE851
:10132000004100F047B94FEAD22242EA43524FEA65
:10133000D323A7FB02864FEAD02040EA415007FBA7
:1013400003661EEA0E0F4FEAD12105FB026658BF65
:10135000A6EB0056B6EB00564FEA520E4EEAC37E9D
:1013600018EB0E0E56EB530EBDD518EB02085E417E
:101370007F1C55F10005B6E74FF480154FF00007CC
:101380004FF000064FF00008ADE7F0BC4FF0000052
:1013900001F1C04101F00041BDE8008111EA0C1FDC
:1013A0000CEA131500D00CE013EA0C1F00F02580A6
:1013B0004FF00000F0BC81EA030101F00041BDE8FC
:1013C0000081F0BCBDE8004181EA030100F0F2B801
:1013D000F0BCBDE8004170B500F09EF8097EFC3E0F
:1013E00000F007B881EA03014FF0000001F000416E
:1013F000704781EA030100F0DDB8F0BCBDE80041B0
:101400004FF0000021497047FFFDFBF9F7F5F4F2BA
:10141000F0EEEDEBE9E8E6E4E3E1E0DEDDDBDAD88F
:10142000D7D5D4D3D1D0CFCDCCCBCAC8C7C6C5C4ED
:10143000C2C1C0BFBEBDBCBBBAB9B8B7B6B5B4B304
:10144000B2B1B0AFAEADACABAAA9A8A8A7A6A5A4EF
:10145000A3A3A2A1A09F9F9E9D9C9C9B9A999998B3
:101460009797969595949393929191908F8F8E8E56
:101470008D8C8C8B8B8A89898888878786858584E3
:1014800084838382828181800000FF070000F87FCF
:101490004FEA1153A3F58063D3F11E03A8BFD3F124
:1014A000200C08DB4FF0004242EAC12252EA5052BF
:1014B00032FA03F0704709420BD4102BC4BF00204E
:1014C000704703F5787CBCF1FF3F05D04FF0FF304B
:1014D00070474FF00000704770B500F01DF800BF76
:1014E0004992248000207047F0E710F0004248BF86
:1014F0004042B0FA80F310FA03F10AD0C3F11D03A1
:1015000003F580634FEA415002EB035202EBD12115
:1015100070474FF0000070470EF1020E2EF0030EE0
:101520005EF8046B364205D4012A43EB030515F53A
:10153000001F12D8012841EB010C1CF5001F0CD82C
:101540000ED14FEAD17C15F5001F0CEB4C0C0CF1C1
:10155000020C08BF4CEBD37C04E04FF0080C01E018
:101560004FEAD37C0CEB4C0526FA05F606F007068D
:10157000B6F1040C06D20EEB860CBDE870404CF0C0
:10158000010C6047DFE80CF0090B02024FF000414C
:101590004FF00000A1F5002170BD1946104601284A
:1015A00051EB010418BFD4F5001484BF002001F0F2
:1015B000004170BD0808A0F500114FEA31017047E5
:1015C00091EA030F10B581F000413FF569AD83F05A
:1015D000004300F009B8000010B591EA030F48BFBE
:1015E00083F000433FF55CAD841A71EB030C07D226
:1015F00012198CF0004C43EB0C03001B61EB0C0147
:10160000DFF8A4E14FEA1154A4EB135C1EEA430F88
:1016100018BF9EEA445F00F0B08023EA6E03524296
:1016200021EA0451C3EB6E0338BF5B1EDCF1200ED0
:1016300025D322FA0CFE10EB0E0043FA0CFE41EB10
:101640000E01CCF1200E03FA0EFE10EB0E0051F14C
:101650000001CCF1200E29D412FA0EF201EB045154
:10166000BDE8104058BF7047401C1CBFB2F1004F8E
:10167000704700280CBF491C20F00100704712EB96
:10168000020E43EB030218BF4FF0010E4EEA420276
:10169000ACF1200CDCF11E0E54D943FA0CFE10EB19
:1016A0000E0051F1FF31CCF11E0ED5D50EF1010E19
:1016B00012FA0EFE404141EB010101EB445C5FEA8E
:1016C0005C5C10D910EBDE7001EB045138BFBEF149
:1016D000004FBDE8104018BF704700280CBF491CE0
:1016E00020F00100704730D24FEAD42C11F50011E0
:1016F00024F400641BD0B1FA81F20B3AA41AA41EA0
:10170000D2F12003914030FA03F31943904001EBEA
:10171000CC71002C01EB0451BDE81040A8BF70470C
:1017200001F1C0414FF0000001F000417047B0FAF4
:1017300080F310FA03F100D110BDE41A173C4805FC
:10174000C90AE4E701EB045110BD491001EB045153
:10175000BDE810404FEA300002E04FF00001704752
:101760004A0008BF0042F8D0B2F5001F28BF7047FA
:1017700001F000414FF0000070479EEA445F07D03F
:1017800011EA5E0FBDE8104004BF00210020704741
:10179000BDE8104070B5FFF7BFFE00BF40DFF63E6A
:1017A00083F00041104670470000E0FF0000000099
:1017B0000000000000000000000000000000000029
:1017C0000000000000000000000000000000000019
:1017D0000000000000000000000000000000000009
:1017E00000780000000078000070000000007C001D
:1017F0000030000000007E00003000000000FF000C
:10180000007000000000FF00007000000001FF00F9
:1018100000F000000001FE0000E000000003FE00F8
:1018200001E000000003FC0001E000000007F800F8
:1018300003E00000000FF80003E00000000FF000DC
:1018400007E00000001FE00007C00000003FE000CC
:101850000FE00000003FC0000FF80000007F800094
:101860001FFC000000FF00003FFF000001FF000020
:101870003EFF800001FF00007C7FE00003FF0000CE
:10188000783FF80007FF8000F01FFE0007FFC00050
:10189000E00FFFC007FFE001C007FFF803FFC00132
:1018A0008003FFFF001FC0038007FFFF003FC0034E
:1018B000003FFFFF007F802701FFFFFF007F807E4A
:1018C0000FFF87FF00FF007E7FFC001F01FE00FF6F
:1018D000FFE0000003FC01FBFF80000003F801F1C2
:1018E000FE00000007F803F0FC1FFC000FFC06E000
:1018F00071FFFF000FFC0440E7FFFF001FFC0C001E
:10190000C7FFFF001FFE1801C001FF001FFE1803E4
:101910008003FE001FFE30038007FC001FFFE0076E
:10192000000FF80001FFE007000FF00003FFC00FF9
:10193000001FE00003FF800F003F800003FF000F47
:10194000807E000007FF000F80FFC00007FE000F31
:1019500081FFE00007FC000F81FFF0000FF8000F8F
:1019600081FFE0000FF0000780FFC0000FE00000E3
:10197000000000000FC00000000000000F80000009
:101980000000000007000000000000000000000050
:101990000000000000000000000000000000000047
:1019A0000000000000000000000000000000000037
:1019B0000000000000000000000000000000000027
:1019C0000000000000000000000000000000000017
:1019D0000000000000000000038000000000000084
:1019E00003E000000000000003E000000000000031
:1019F00007F000000000C00007F000000000F00049
:101A000007F800000000F80007F800000000F800E8
:101A10000FF80FF00001FC000FF9FFFC0001FC00C3
:101A20000FFFFFFE0003FC000FFFFFFF0003FC00A1
:101A30001FFFFFFF0007FC001FFFFFFE0007FC0069
:101A40001FFFFFFC000FF8001FFFFFF8001FF8004A
:101A50001FFFFFE0003FF0001FFFFFC0003FF0004E
:101A60000FEFFF80007FE0000F8FFE0000FFE0001F
:101A7000000FF80001FFC000001FE00001FF800020
:101A8000001FE00003FF0000000FE00007FE000061
:101A9000000FE0000FFE0000000FE0001FFE00003E
:101AA000000FE0003FFF0000000FE0003FFF0000DC
:101AB000000FF0003FFF00000007F0001FFF0000D4
:101AC0000007F00003FF0C000007F000003F0C00CF
:101AD0000007F000003F181C0007F000003F183E10
:101AE0000007F000003F383E0007F800003FF07F9D
:101AF0000007F83C003FF07F0007F83F007FE07FE1
:101B00000007F83F007FE0FF000FF83F007FC0FFB5
:101B1000000FF83F007FC0FFE00FF83F007F80FF1D
:101B2000F80FF01F007F80FFFC1FF01F00FF00FF79
:101B3000FFFFF01F00FF00FF9FFFF00F00FE00FF00
:101B40008FFFF00F00FE00FF87FFE000003C00FF6A
:101B500001FFE000001C00FF00FFE000000000FEAD
:101B6000007FE000000000FC003FC000000000001B
:101B7000003F8000000000000000000000000000A6
:101B80000000000000000000000000000000000055
:101B90000000000000000000000000000000000045
:101BA0000000000000000000000000000000000035
:101BB0000000000000000000000000000000000025
:101BC0000000000000000000000000000000000015
:101BD000000003000000000000007FC000000000C3
:101BE000000FFFC00000000000FFFF8000000000A9
:101BF00003FFFF800003FF8003FFFF00000FFFF0E3
:101C000001FFFE000003FFF00001FE000003FFF0F3
:101C10000001FE000003F1F00007FF000003F1E007
:101C2000000FFF800003F000001FFFF00003F00032
:101C30000063FFE00003F00001FFFFC00003FC00B1
:101C400003FFFFC00003FE0007FFFF80003FFF000F
:101C500007FFFF00003FFE000FFFFF00003FFC00FA
:101C60000407FF80001FFC00001FFFC00003F800F6
:101C7000003FFFE00003F000007FFFE00003F00002
:101C800001FFFFC00003F0F003FFFF800007F3F047
:101C900007FFFF00000FF7E00FFFFF00000FFF80BE
:101CA0000FFFFF000003FF00040FFF000023FE00F2
:101CB000003FFF00007FFC0000FFFF0001FFFC0071
:101CC0000383FF8003FFF8000003FFDF07FFF80036
:101CD000001FFFFF07FFF80001FFFFFF07E3F01FF2
:101CE000FFFFFFFF0703F07FFFF3FF000007F0FF98
:101CF000FE03FF000007E0FFE003FF00000FC0FC51
:101D00000003FF00001F80000003FF00003F0000F1
:101D10000003FF0000FE00000003FF0001FC0000C4
:101D20000003FF0003F800000003FF000FF00000B5
:101D30000003FF000FE000000001FF00078000002B
:101D40000001FF00000000000001FF000000000093
:101D50000001FF00000000000001FF000000000083
:101D60000001FF00000000000001FF000000000073
:101D70000001FE00000000000001FC000000000067
:101D80000000F8000000000000003000000000002B
:101D90000000000000000000000000000000000043
:101DA0000000000000000000000000000000000033
:101DB0000000000000000000000000000000000023
:101DC000E000000000000001F80000000000000337
:101DD000FC000E0000000007FC00FF800000000770
:101DE000FC1FFF800000000FFFFFFF800000003F8E
:101DF000FFFFFF800000007FFFFFFF00000000FFEB
:101E0000FFF7F800000001FFFFCFE000000003FF34
:101E1000FFFFF000000007FFFFFFF000000007FFDA
:101E2000FFFFF00000000FFFFFFFF00000000FFFBA
:101E3000BFC7E00000000FFC7F87F00000000FFF2D
:101E4000FC7FF000000007FFE1FFF0000000007FD2
:101E5000FFFFF0000000007FFFFFF000000001FF27
:101E6000FFFFF000000003FFFFFFC000000007FFBE
:101E7000FFFF800000000FFFFFFF800000001FFF3A
:101E8000FFFF800000001FFFF83F800000001FC719
:101E9000C03F800000000007003F80000000003CC1
:101EA000003F8000000000F0003F8000000001E0E3
:101EB000003F8000000007FF007F800000000FFF50
:101EC000F07F800000000FFFF87F800000001FFF00
:101ED000F07F800000001FFFE07F800000000FFF08
:101EE000C07F800000000FFF007F803C00000000EA
:101EF000007F87FF00000000007FFFFF0000000060
:101F00000FFFFFFF0000000FFFFFFFFF000007FFB4
:101F1000FFFFFFFF0000FFFFE07F87FF001FFFFCC8
:101F2000007F000000FFFFC0007F000007FFFC00F3
:101F3000007F00003FFF8000007F00001FFC0000CA
:101F4000007F00000FC00000007F000000000000C4
:101F5000007F000000000000007F00000000000083
:101F6000007F000000000000007F00000000000073
:101F7000007F000000000000003F000000000000A3
:101F8000073F00000000000003FF00000000000009
:101F9000001E000000000000000000000000000023
:101FA0000000000000000000000000000000000031
:101FB0000000000000000000000000000000000021
:101FC0000000000000000000000000000000000011
:101FD0000000000000000000000000000000000001
:101FE00000000000000000000003FE0000000000F0
:101FF00000FFFF00000000001FFFFFC000000007FF
:10200000FFFFFF80000001FFFF9FFF0000003FFF78
:10201000FC3FFE000000FFFFF07FFC000000FFFF20
:10202000C0FFF00000007FFE01FFE00000000FF89D
:1020300003FFC000000000E00FFF80000000000070
:102040001FFE0000000000003FFC00000000000038
:102050007FF0000000000000FFE000000000000131
:10206000FF00000000000000FF80000000000000F2
:10207000FFC00000000000007FC000000000000062
:102080007FE00000000000003FE0000000000000D2
:102090003FF00000000000001FF000000000000002
:1020A0001FF00000000000000FF000000000000022
:1020B0000FF00000000000000FF000000000000022
:1020C0000FF00000000000000FF000000000000012
:1020D0000FF00000000000000FF000000000000002
:1020E0000FF00000000000001FF0000000000000E2
:1020F0001FF00000000000001FF0000000000000C2
:102100001FF00000000000001FF0000000000000B1
:102110001FF00000000000003FF000000000000081
:102120003FF00000000000007FF000000000000011
:10213000FFF0000000000007FFF00000007FFFFF3D
:10214000FFF00000007FFFFFFFE00000001FFFFF27
:10215000FFE0000000003FFFFFE000000000007F04
:10216000FFC0000000000001FF8000000000000030
:10217000000000000000000000000000000000005F
:10218000000000000000000000000000000000004F
:10219000000000000000000000000000000000003F
:1021A000000000000000000000000000000000002F
:1021B000000000000000000000000000000000100F
:1021C0001010101010100000181800000012362413
:1021D0004800000000000000000000000000002493
:1021E0002424FE484848FE484848000000001038B3
:1021F0005454503018141454543810100000004433
:10220000A4A8A8A8541A2A2A2A44000000000030D2
:10221000484848506EA49488897600000060602089
:10222000C0000000000000000000000000020408E0
:1022300008101010101010080804020000402010B0
:1022400010080808080808101020400000000000CE
:102250001010D63838D61010000000000000000022
:1022600010101010FE1010101000000000000000F0
:102270000000000000000000606020C000000000BE
:10228000000000007F0000000000000000000000CF
:10229000000000000000000060600000000001027B
:1022A000020404080810102020404000000000181C
:1022B00024424242424242422418000000000010E0
:1022C0007010101010101010107C00000000003C66
:1022D0004242420404081020427E00000000003CFC
:1022E0004242041804020242443800000000000484
:1022F0000C14242444447E04041E00000000007ECC
:102300004040405864020242443800000000001C73
:102310002440405864424242241800000000007EDD
:102320004444080810101010101000000000003C79
:102330004242422418244242423C0000000000185D
:1023400024424242261A0202243800000000000003
:10235000000018180000000018180000000000001D
:10236000000000100000000000101020000000021B
:1023700004081020402010080402000000000000A3
:102380000000FE000000FE00000000000000004011
:102390002010080402040810204000000000003C47
:1023A00042426202040808001818000000000038C9
:1023B000445AAAAAAAAAB442443800000000001055
:1023C00010182828243C444242E70000000000F88E
:1023D000444444784442424244F800000000003E35
:1023E000424280808080804244380000000000F833
:1023F000444242424242424244F80000000000FC93
:10240000424848784848404242FC0000000000FC36
:10241000424848784848404040E000000000003C06
:1024200044448080808E844444380000000000E7EB
:10243000424242427E42424242E700000000007CAB
:102440001010101010101010107C00000000003E42
:102450000808080808080808080888F0000000EEC6
:10246000444850705048484444EE0000000000E0EA
:10247000404040404040404042FE0000000000EE2E
:102480006C6C6C6C5454545454D60000000000C75B
:10249000626252524A4A4A4646E200000000003850
:1024A000448282828282828244380000000000FCE2
:1024B000424242427C40404040E000000000003880
:1024C000448282828282B2CA4C380600000000FC3C
:1024D0004242427C4848444442E300000000003E3F
:1024E0004242402018040242427C0000000000FEEC
:1024F000921010101010101010380000000000E7AB
:102500004242424242424242423C0000000000E756
:10251000424244242428281810100000000000D64D
:1025200092929292AAAA6C4444440000000000E7F0
:10253000422424181818242442E70000000000EE6A
:102540004444282810101010103800000000007EAD
:10255000840408081020204242FC0000001E1010D5
:10256000101010101010101010101E00000040402D
:102570002020101010080804040402020078080843
:10258000080808080808080808087800001C220045
:10259000000000000000000000000000000000003B
:1025A0000000000000000000000000FF00601000BC
:1025B000000000000000000000000000000000001B
:1025C0000000003C421E2242423F0000000000C0CA
:1025D00040404058644242426458000000000000FD
:1025E0000000001C22404040221C000000000006A9
:1025F0000202021E22424242261B0000000000008E
:102600000000003C427E4040423C00000000000FC1
:102610001110107E10101010107C0000000000003F
:102620000000003E444438403C42423C000000C0B0
:102630004040405C6242424242E7000000000030FD
:102640003000007010101010107C00000000000C12
:102650000C00001C0404040404044478000000C0BE
:102660004040404E4850684844EE00000000007072
:102670001010101010101010107C0000000000004E
:10268000000000FE4949494949ED000000000000F2
:10269000000000DC6242424242E70000000000000D
:1026A0000000003C42424242423C00000000000068
:1026B000000000D864424242447840E0000000003C
:1026C0000000001E22424242221E020700000000BB
:1026D000000000EE3220202020F800000000000062
:1026E0000000003E42403C02427C0000000000002E
:1026F0000010107C10101010100C000000000000E2
:10270000000000C642424242463B0000000000007A
:10271000000000E742242428101000000000000000
:10272000000000D79292AAAA4444000000000000D2
:102730000000006E24181818247600000000000025
:10274000000000E742242428181010E000000000D8
:102750000000007E44081010227E000000030404E4
:10276000040404080404040404040300080808081A
:102770000808080808080808080808080060101079
:10278000101010081010101010106000304C430092
:10279000000000000000000000000000BC2700084E
:1027A00000000020200000006C010008DC27000869
:1027B00020000020600600008801000800A24A04F2
:1027C00000000000000000000102030406070809E1
:0C27D000000000000000FFFF00000000FF
:0400000508000131BD
:00000001FF
